S01700005265616C2074696D6520636C6F636B2E737265638E
S11300000C9402010C941F010C941F010C941F0109
S11300100C941F010C9455070C941F010C941F01A0
S11300200C941F010C941F010C941F010C941F01CC
S11300300C941F010C941F010C941F010C941F01BC
S11300400C941F010C941F010C941F010C941F01AC
S11300500C941F012D0146015F017801900190016C
S11300609001900190019001900190019001900104
S113007090019001900190019001900190019001F4
S113008090019001900190019001900190019001E4
S1130090900190012D0146015F0178019D01B60197
S11300A0CF01E80100020002000200020002000287
S11300B0000200020002000200020002000200022C
S11300C0000200020002000200020002000200021C
S11300D00002000200020002000200029D01B601BB
S11300E0CF01E801100225023A024F0263026302C3
S11300F063026302630263026302630263026302D4
S113010063026302630263026302630263026302C3
S113011063026302630263026302630263026302B3
S113012063026302100225023A024F027202740251
S113013076027802790279027902790279027902E7
S113014079027902790279027902790279027902D3
S113015079027902790279027902790279027902C3
S113016079027902790279027902790272027402BF
S1130170760278028502870289028B028C028C0245
S11301808C028C028C028C028C028C028C028C02FB
S11301908C028C028C028C028C028C028C028C02EB
S11301A08C028C028C028C028C028C028C028C02DB
S11301B08C028C028502870289028B029902B202A8
S11301C0CB02E402FC02FC02FC02FC02FC02FC0284
S11301D0FC02FC02FC02FC02FC02FC02FC02FC022B
S11301E0FC02FC02FC02FC02FC02FC02FC02FC021B
S11301F0FC02FC02FC02FC02FC02FC029902B202B8
S1130200CB02E40211241FBECFE5D8E0DEBFCDBF90
S113021010E0A0E6B0E0EAE4FFE002C005900D9231
S1130220AC3BB107D9F720E0ACEBB0E001C01D92C4
S1130230A23CB207E1F70E9429050C94A3070C9491
S1130240000090E0FC01E154F109E432F10508F00A
S113025067C0E65DFF4F0C949D07413059F42AB303
S113026081E090E002C0880F991F6A95E2F7822B23
S11302708ABB08952AB381E090E002C0880F991FD9
S11302806A95E2F7809582238ABB0895413059F438
S113029027B381E090E002C0880F991F6A95E2F7C6
S11302A0822B87BB089527B381E090E002C0880FBA
S11302B0991F6A95E2F78095822387BB08954130A0
S11302C059F424B381E090E002C0880F991F6A9525
S11302D0E2F7822B84BB089524B381E090E002C04E
S11302E0880F991F6A95E2F78095822384BB08954D
S11302F0413059F421B381E090E002C0880F991F86
S11303006A95E2F7822B81BB089521B381E090E0E6
S113031002C0880F991F6A95E2F78095822381BBFA
S1130320089590E0FC01E154F109E432F10508F08C
S113033067C0E25BFF4F0C949D07413059F42BB327
S113034081E090E002C0880F991F6A95E2F7822B42
S11303508BBB08952BB381E090E002C0880F991FF6
S11303606A95E2F7809582238BBB0895413059F456
S113037028B381E090E002C0880F991F6A95E2F7E4
S1130380822B88BB089528B381E090E002C0880FD7
S1130390991F6A95E2F78095822388BB08954130BE
S11303A059F425B381E090E002C0880F991F6A9543
S11303B0E2F7822B85BB089525B381E090E002C06B
S11303C0880F991F6A95E2F78095822385BB08956B
S11303D0413059F422B381E090E002C0880F991FA4
S11303E06A95E2F7822B82BB089522B381E090E004
S11303F002C0880F991F6A95E2F78095822382BB19
S113040008950F931F93082F10E0F801E154F109A8
S1130410E432F10508F057C0EE58FF4F0C949D07E5
S113042049B381E090E09C01062E02C0220F331FE5
S11304300A94E2F7842F90E08223932302C09595D7
S113044087956A95E2F7982F3EC046B381E090E025
S11304509C01062E02C0220F331F0A94E2F7842F58
S113046090E08223932302C0959587956A95E2F7DD
S1130470982F29C043B381E090E09C01062E02C06E
S1130480220F331F0A94E2F7842F90E082239323F0
S113049002C0959587956A95E2F7982F14C040B3EA
S11304A081E090E09C01062E02C0220F331F0A94C3
S11304B0E2F7842F90E08223932302C095958795D9
S11304C06A95E2F7982F892F1F910F91089590E074
S11304D0FC01E154F109E432F10558F4EA56FF4F06
S11304E00C949D076ABB089567BB089564BB089587
S11304F061BB089590E0FC01E154F109E432F10597
S113050058F4E654FF4F0C949D076BBB089568BBE9
S1130510089565BB089562BB089590E0FC01E15421
S1130520F109E432F10508F067C0E252FF4F0C9480
S11305309D07413059F42BB381E090E002C0880F4D
S1130540991F6A95E2F7822B8BBB08952BB381E048
S113055090E002C0880F991F6A95E2F78095822384
S11305608BBB0895413059F428B381E090E002C078
S1130570880F991F6A95E2F7822B88BB089528B3E8
S113058081E090E002C0880F991F6A95E2F7809598
S1130590822388BB0895413059F425B381E090E06B
S11305A002C0880F991F6A95E2F7822B85BB0895D4
S11305B025B381E090E002C0880F991F6A95E2F7A5
S11305C08095822385BB0895413059F422B381E09C
S11305D090E002C0880F991F6A95E2F7822B82BBD4
S11305E0089522B381E090E002C0880F991F6A95B4
S11305F0E2F78095822382BB089541E060E084E4C1
S11306000E94210141E061E084E40E94210141E073
S113061062E084E40E94210141E063E084E40E94FA
S1130620210140E064E084E40E94210140E065E0AF
S113063084E40E94210140E066E084E40E942101F8
S113064040E067E084E40E94210141E064E084E446
S11306500E948D0241E065E084E40E948D0241E045
S113066066E084E40E948D0241E067E084E40E9435
S11306708D020895EF92FF920F931F93CF93DF9310
S1130680CDB7DEB760970FB6F894DEBF0FBECDBF0F
S113069080E1E0E6F0E0DE01119601900D928A958A
S11306A0E1F7EE24EA94F12C39C041E060E084E4FF
S11306B00E94910141E061E084E40E94910141E0E3
S11306C062E084E40E94910141E063E084E40E94DA
S11306D0910140E06F2D84E40E94910110E019C063
S11306E064E0610F84E40E940102082F811110C0AC
S11306F0EF2DF0E0EE0FFF1FEE0FFF1F81E090E003
S11307008C0F9D1FE80FF91FE10FF11DE08003C05E
S11307101F5F143028F3002321F0F39493E09F1516
S113072020F68E2D60960FB6F894DEBF0FBECDBFB7
S1130730DF91CF911F910F91FF90EF90089541E0C9
S113074062E081E40E9491018FEC97E00197F1F758
S113075000C0000040E062E081E40E9491018FEC5F
S113076097E00197F1F700C000000895CF93C82FD8
S1130770482F407150E055954795559547955595A7
S113078047955595479563E081E40E9491014C2F6C
S1130790407250E055954795559547955595479521
S11307A0559547955595479564E081E40E949101DC
S11307B04C2F407450E0042E452F000C441F550B61
S11307C0000C441F551F65E081E40E9491014C2FE9
S11307D0441F4427441F66E081E40E94910141E0E4
S11307E061E081E40E9491010E949F034C2F4170BB
S11307F063E081E40E9491014C2F427050E05595D2
S1130800479564E081E40E9491014C2F447050E0CC
S1130810559547955595479565E081E40E9491016A
S1130820C8704C2F50E0559547955595479555956B
S1130830479566E081E40E94910141E061E081E432
S11308400E9491010E949F038FEC97E00197F1F7BA
S113085000C00000CF910895CF93C82F482F407156
S113086050E0559547955595479555954795559518
S1130870479563E081E40E9491014C2F407250E05F
S1130880559547955595479555954795559547954C
S11308905595479564E081E40E9491014C2F407482
S11308A050E0042E452F000C441F550B000C441F30
S11308B0551F65E081E40E9491014C2F441F442799
S11308C0441F66E081E40E94910140E061E081E41C
S11308D00E9491010E949F034C2F417063E081E4C8
S11308E00E9491014C2F427050E05595479564E069
S11308F081E40E9491014C2F447050E05595479536
S11309005595479565E081E40E949101C8704C2F8C
S113091050E055954795559547955595479566E00B
S113092081E40E94910140E061E081E40E94910130
S11309300E949F038FEC97E00197F1F700C000003D
S1130940CF9108952FEF81EE94E0215080409040A4
S1130950E1F700C0000041E063E081E40E9421016E
S113096041E064E081E40E94210141E065E081E42A
S11309700E94210141E066E081E40E94210141E0FE
S113098061E081E40E94210141E062E081E40E948F
S1130990210182E00E942C048FE19EE40197F1F78B
S11309A000C0000088E20E942C048FEC97E00197BD
S11309B0F1F700C000008CE00E942C048FEC97E05B
S11309C00197F1F700C0000081E00E942C048FE140
S11309D09EE40197F1F700C0000086E00E942C0419
S11309E08FEC97E00197F1F700C00000089581E0D3
S11309F00E942C0408959FEF980F923070F46623A0
S1130A0071F0613170F4813019F42FE7260F0AC0B8
S1130A10823041F42FEB260F05C020E803C020E804
S1130A2001C020E8822F0E942C048FEC97E00197EC
S1130A30F1F700C000000895CF93DF93EC0103C0E9
S1130A400E94B603219688818111FACFDF91CF915C
S1130A5008950E94A2040E94FD0282E40E94660797
S1130A6084B3816084BB84B3826084BB84B38460B8
S1130A7084BB84B3886084BB84B3806184BB84B347
S1130A80806284BB8AE790E00E941C0561E082E0FA
S1130A900E94FB0485E890E00E941C050E948F07D9
S1130AA00E943A038093C1008F3F09F4FBC0813355
S1130AB009F0DBC00E94F7048FE890E00E941C0557
S1130AC067E081E00E94FB042FEF84E39CE0215067
S1130AD080409040E1F700C000000E943A038093F8
S1130AE0BD008F3FD1F30E94B6032FEF82E597E05C
S1130AF0215080409040E1F700C000000E943A037A
S1130B008093C0008F3FD1F30E94B6032FEF82E59C
S1130B1097E0215080409040E1F700C000008091B0
S1130B20BD0090E0C097880F982F990F990F890FF7
S1130B309091C000890F80538093BF000E94F704F6
S1130B4088E990E00E941C0569E081E00E94FB04B2
S1130B502FEF84E39CE0215080409040E1F700C0F7
S1130B6000000E943A038093BD008F3FD1F30E949E
S1130B70B6032FEF82E597E0215080409040E1F7E3
S1130B8000C000000E943A038093C0008F3FD1F35D
S1130B900E94B6032FEF82E597E0215080409040F9
S1130BA0E1F700C000008091BD0090E0C097880F7D
S1130BB0982F990F990F890F9091C000890F805336
S1130BC08093BE000E94F70483EA90E00E941C0513
S1130BD069E081E00E94FB042FEF84E39CE0215054
S1130BE080409040E1F700C000000E943A038093E7
S1130BF0BD008F3FD1F30E94B6032FEF82E597E04B
S1130C00215080409040E1F700C000000E943A0368
S1130C108093C0008F3FD1F30E94B6032FEF82E58B
S1130C2097E0215080409040E1F700C0000080919F
S1130C30BD0090E0C097880F982F990F990F890FE6
S1130C409091C000890F80538093BC000E94F704E8
S1130C508AE790E00E941C0561E082E00E94FB04A8
S1130C6085E890E00E941C051DC00E94F7048EEAEE
S1130C7090E00E941C052FEF89E698E12150804006
S1130C809040E1F700C000000E94F7048AE790E07A
S1130C900E941C0561E082E00E94FB0485E890E06C
S1130CA00E941C0585B38E7F85BB85B3826085BB9E
S1130CB085B3846085BB85B3886085BB85B380615B
S1130CC085BB85B3806285BB6091BC00CDEC6C9F15
S1130CD0812D1124869586958695880F982F990FD6
S1130CE0990F890F681B82E40E946A078FE097E2DC
S1130CF00197F1F700C0000085B3816085BB85B31F
S1130D008D7F85BB85B3846085BB85B3886085BBD7
S1130D1085B3806185BB85B3806285BB6091BC006F
S1130D206C9F612D112466956695669582E40E94F8
S1130D306A078FE097E20197F1F700C0000085B3DE
S1130D40816085BB85B3826085BB85B38B7F85BBA2
S1130D5085B3886085BB85B3806185BB85B38062BC
S1130D6085BB6091BE006C9F812D1124869586956C
S1130D708695880F982F990F990F890F681B82E425
S1130D800E946A078FE097E20197F1F700C0000024
S1130D9085B3816085BB85B3826085BB85B3846080
S1130DA085BB85B3877F85BB85B3806185BB85B3F0
S1130DB0806285BB6091BE006C9F612D1124669595
S1130DC06695669582E40E946A078FE097E2019730
S1130DD0F1F700C0000085B3816085BB85B38260F4
S1130DE085BB85B3846085BB85B3886085BB85B3CB
S1130DF08F7E85BB85B3806285BB6091BF006C9F8D
S1130E00812D1124869586958695880F982F990FA4
S1130E10990F890F681B82E40E946A078FE097E2AA
S1130E200197F1F700C0000085B3816085BB85B3ED
S1130E30826085BB85B3846085BB85B3886085BBD0
S1130E4085B3806185BB85B38F7D85BB6091BF0011
S1130E506C9F612D112466956695669582E40E94C7
S1130E606A078FE097E20197F1F700C000008091D4
S1130E70BC008C3339F41092BC008091BE008F5FAB
S1130E808093BE008091BE008C3339F41092BE0072
S1130E908091BF008F5F8093BF008091BF00883135
S1130EA009F0FECD1092BC00FBCD1F920F920FB63D
S1130EB00F9211248F938091BC008F5F8093BC00AC
S1130EC08F910F900FBE0F901F9018956FEF0E9497
S1130ED067020895CF93DF93CDB7DEB72A970FB695
S1130EE0F894DEBF0FBECDBF9AE0E0E7F0E0DE018C
S1130EF0119601900D929A95E1F7E1E0F0E0EC0F84
S1130F00FD1FE60FF11D60810E947A022A960FB63A
S1130F10F894DEBF0FBECDBFDF91CF91089582B5A7
S1130F20886082BD85B5816085BD85B5846085BDD9
S1130F30789489B7806489BF0895EE0FFF1F0590E8
S10D0F40F491E02D0994F894FFCF1A
S1130F4A3738392F3435362A3132332D41303D2B57
S1130F5A3F065B4F666D7D477F6F707265737320C2
S1130F6A3120746F0073657420636C6F636B00487F
S1130F7A6F7572733D2D2D006D696E757465733DC1
S1130F8A2D2D007365636F6E64733D2D2D0077728A
S10F0F9A6F6E672063686F696365000078
S9030000FC
